S0190000556C747261736F756E645F73656E736F722E73726563E1
S11300000C94B5000C94D2000C94D2000C94D20041
S11300100C94D2000C94D2000C94D2000C94D20014
S11300200C94D2000C94D2000C9461030C94EF0253
S11300300C9428030C94CA020C94D2000C94D200A1
S11300400C94D2000C94D2000C94D2000C94D200E4
S11300500C94D2000C94D2000C94D2000C94D200D4
S11300600C94D2000C94D2006E616E00696E66002E
S113007000407A10F35A00A0724E18090010A5D45B
S1130080E80000E87648170000E40B54020000CAB8
S11300909A3B000000E1F5050000809698000000FE
S11300A040420F000000A08601000000102700005D
S11300B00000E803000000006400000000000A00E3
S11300C0000000000100000000002C76D888DC67E6
S11300D04F0823DFC1DFAE59E1B1B796E5E3E4533E
S11300E0C63AE651997696E8E6C28426EB898C9B5B
S11300F062ED407C6FFCEFBC9C9F40F2BAA56FA5FB
S1130100F490055A2AF75C936B6CF9676DC11BFC7C
S1130110E0E40D47FEF520E6B500D0ED902E030097
S1130120943577050080841E080000204E0A0000E4
S113013000C80C333333330F986E12831141EF8DA3
S11301402114893BE65516CFFEE6DB18D1844B38E3
S11301501BF77C1D901DA4BBE424203284725E2214
S11301608100C9F124ECA1E53D2711241FBECFEF86
S1130170D8E0DEBFCDBF11E0A0E0B1E0EEEEFAE1E1
S113018002C005900D92A033B107D9F721E0A0E396
S1130190B1E001C01D92AF33B207E1F70E947F04C2
S11301A00C94750D0C940000411105C0FC01829162
S11301B0682B60830895413071F4FC012291362F3D
S11301C0309523232083FC012081622B608385B733
S11301D08F7E85BF0895423049F4FC0122916095D9
S11301E026232083FC012081622B608308958830BC
S11301F068F44BB121E030E0B90102C0660F771F0B
S11302008A95E2F7CB01842B8BB908958E3070F474
S113021045B1885021E030E0B90102C0660F771F74
S11302208A95E2F7CB01842B85B90895853168F46A
S113023048B18E5021E030E0B90102C0660F771F4B
S11302408A95E2F7CB01842B88B90895883070F43D
S11302504BB121E030E0B90102C0660F771F8A95E7
S1130260E2F7CB01809584238BB908958E3078F41E
S113027045B1885021E030E0B90102C0660F771F14
S11302808A95E2F7CB018095842385B90895853159
S113029070F448B18E5021E030E0B90102C0660F1D
S11302A0771F8A95E2F7CB018095842388B9089556
S11302B05B9A85E08A95F1F700005B980895CF93E7
S11302C0C82F5A988BB18F709C2F907F892B8BB934
S11302D00E9458018FE193E00197F1F700C00000FC
S11302E08BB1282F2F7030E1C39FC0011124822BC2
S11302F08BB90E9458018FE39FE10197F1F700C089
S11303000000CF910895CF93C82F5A9A8BB18F7064
S11303109C2F907F892B8BB90E9458018FE193E029
S11303200197F1F700C000008BB1282F2F7030E146
S1130330C39FC0011124822B8BB90E9458018FE303
S11303409FE10197F1F700C00000CF91089581E08B
S11303500E945F018FE39FE10197F1F700C0000065
S113036082E00E945F0108952BB12F7030E1839FDA
S1130370C0011124822B8BB90E9458010895CF9299
S1130380DF92EF92FF920F931F93CF93DF937C0141
S1130390C12CD12CD0E4CC2D8D2F0E945F01C6013D
S11303A028E0C20ED11C86018C159D0564F4F7016A
S11303B0EC0FF11D80810E948301CF5F8C2F90E0B0
S11303C080179107A4F3D85FD03829F780E80E94FA
S11303D05F01DF91CF911F910F91FF90EF90DF901C
S11303E0CF900895529A539A549A559A569A579A76
S11303F02FEF83EF91E0215080409040E1F700C05F
S1130400000083E00E94B4018FE39CE90197F1F7B7
S113041000C0000083E00E94B4018FEC97E00197D4
S1130420F1F700C0000083E00E94B40182E00E9462
S11304305F0188E20E945F0188E00E945F0181E021
S11304400E945F0186E00E945F018CE00E945F01D0
S11304508FE39CE90197F1F700C0000080E091E090
S11304600E94BF018FE39CE90197F1F700C00000EF
S11304700E94A70108950F931F93CF93FC018081DD
S1130480882359F08F01C0E00E948301CF5FF801F7
S1130490EC0FF11D80818111F7CFCF911F910F9146
S11304A00895CF93DF93EA01813041F4603178F409
S11304B0862F8F7080680E945F0109C0823039F4F2
S11304C0603128F4862F8F70806C0E945F01CE010A
S11304D00E943B02DF91CF910895AF92BF92CF92D9
S11304E0DF92EF92FF920F931F93CF93DF93DC0180
S11304F0CB016894AA24A6F80F2EF2E4BF2EF02DA7
S11305000F2EFFE0CF2EF02DD12CE12CF12C00E0AA
S113051010E0282F392F4A2F5B2F60E070E080E035
S113052090E00E94BF0AA12C0F2EF4E2BF2EF02D02
S11305300F2EF4EFCF2EF02D0E941A0B622F732F83
S1130540842F952FDF91CF911F910F91FF90EF9002
S1130550DF90CF90BF90AF90089542E061E085E2D4
S113056090E00E94D40010928500109284001092B2
S11305708000E1E8F0E0808180648083808180688D
S11305808083808181608083EFE6F0E080818162F6
S1130590808308951F920F920FB60F9211248F93A8
S11305A09F93AF93BF9380913A0190913B01A091A7
S11305B03C01B0913D010196A11DB11D80933A010A
S11305C090933B01A0933C01B0933D01BF91AF9147
S11305D09F918F910F900FBE0F901F9018951F92AF
S11305E00F920FB60F9211248F939F93AF93BF93E3
S11305F080913A0190913B01A0913C01B0913D0161
S1130600C297A105B10540F010923A0110923B0146
S113061010923C0110923D0180913A0190913B016E
S1130620A0913C01B0913D010196A11DB11D8093A3
S11306303A0190933B01A0933C01B0933D01BF91DB
S1130640AF919F918F910F900FBE0F901F901895AF
S11306501F920F920FB60F9211248F939F93AF9313
S1130660BF9380913A0190913B01A0913C01B091DC
S11306703D01C297A105B10540F010923A011092D4
S11306803B0110923C0110923D0180913A019091FE
S11306903B01A0913C01B0913D010196A11DB11D0A
S11306A080933A0190933B01A0933C01B0933D01A8
S11306B0BF91AF919F918F910F900FBE0F901F909C
S11306C018951F920F920FB60F9211242F934F93E8
S11306D05F936F937F938F939F93AF93BF93EF93A6
S11306E0FF9380913A0190913B01A0913C01B0911C
S11306F03D014091860050918700B09B05C0552371
S11307001CF00196A11DB11DDC019927882760E02A
S113071070E0842B952BA62BB72B2091340121114B
S113072012C08093300190933101A0933201B093B1
S11307303301E1E8F0E0908180E48927808381E05F
S1130740809334011FC04091300150913101609178
S1130750320170913301841B950BA60BB70B809368
S1130760360190933701A0933801B0933901E1E841
S1130770F0E0908180E4892780831092340181E045
S113078080933501FF91EF91BF91AF919F918F912C
S11307907F916F915F914F912F910F900FBE0F90AA
S11307A01F9018959F92AF92BF92CF92DF92EF92D3
S11307B0FF920F931F93CF93DF93CDB7DEB761976B
S11307C00FB6F894DEBF0FBECDBFA22EB32EC42E3B
S11307D0D52E9F938F937F936F9387E091E09F93A0
S11307E08F931F920F2EF1E19F2EF02D9F92CE0139
S11307F001967C019F938F930E94E70CA70160E010
S113080081E00E945102DF92CF92BF92AF9288E1C1
S113081091E09F938F931F929F92FF92EF920E9479
S1130820E70CA70160E082E00E9451020FB6F89441
S1130830DEBF0FBECDBF2DE53FE842EC5FE36A2D7E
S11308407B2D8C2D9D2D0E94D00688238CF087E073
S1130850E2E2F1E0D70101900D928A95E1F7A70158
S11308606AE082E00E94510281E0F801808312C0B4
S113087087E0E9E2F1E0DE01119601900D928A959C
S1130880E1F7AE014F5F5F4F6AE082E00E945102E0
S1130890F801108261960FB6F894DEBF0FBECDBF8B
S11308A0DF91CF911F910F91FF90EF90DF90CF9048
S11308B0BF90AF909F900895FC0180818823C9F078
S11308C080913E018330D0F489E00E94F700FFEF6D
S11308D025EA8EE0F15020408040E1F700C000009E
S11308E089E00E94260180913E018F5F80933E0142
S11308F0089589E00E94260110923E010895CF9345
S1130900DF931F92CDB7DEB719820E94F90440E04D
S113091062E085E290E00E94D40089E00E94260112
S11309200E94F201E12CF12CD12CC12CB12CA12C70
S1130930912C812C0E9409050E941B059B01AC018E
S11309406E2D7F2D8D2D9C2D0E943B0520E030E0E7
S113095040E05FE30E94D506E62EF72ED82EC92E7E
S113096020E030E040E350E40E943A052B013C01D2
S113097020E030E048E151E40E94A7058823BCF45C
S113098020E030E040E253E4C301B2010E94D50606
S11309902FE632E143E85AE30E94D5069B01AC01FD
S11309A06DE57FE882EC9FE30E943A0508C06B2D59
S11309B07A2D892D982DEB2CFA2CD92CC82C8E014C
S11309C00F5F1F4F262F372F482F592F6E2D7F2D46
S11309D08D2D9C2D0E94D203C8010E945C042FEF30
S11309E089E698E1215080409040E1F700C0000082
S11309F0A1CF40E060E285E290E00E94D40042E0B2
S1130A0061E085E290E00E94D4000E94AD027894F7
S1130A1008958DE00E9426018AE08A95F1F700C0CE
S1130A208DE00E94F70085E38A95F1F700008DE0E0
S1130A300E9426010895809135018823B9F0F89425
S1130A40609136017091370180913801909139019C
S1130A500E946D020E941E0620E030E048E652E447
S1130A600E94AC05109235017894089560E070E01E
S1130A70CB0108955058BB27AA270E9452050C9415
S1130A8096060E94880638F00E948F0620F039F4FA
S1130A909F3F19F426F40C9485060EF4E095E7FBC9
S1130AA00C947F06E92F0E94A70658F3BA17620731
S1130AB073078407950720F079F4A6F50C94C9060A
S1130AC00EF4E0950B2EBA2FA02D0B01B901900165
S1130AD00C01CA01A0011124FF27591B99F0593FA9
S1130AE050F4503E68F11A16F040A22F232F342FF1
S1130AF04427585FF3CF469537952795A795F0403F
S1130B005395C9F77EF41F16BA0B620B730B840B53
S1130B10BAF09150A1F0FF0FBB1F661F771F881F0B
S1130B20C2F70EC0BA0F621F731F841F48F4879563
S1130B3077956795B795F7959E3F08F0B0CF939555
S1130B40880F08F09927EE0F9795879508950E94CE
S1130B505B0608F481E008950E94C0050C94960693
S1130B600E948F0658F00E94880640F029F45F3FE7
S1130B7029F00C947F0651110C94CA060C94850636
S1130B800E94A70668F39923B1F3552391F3951BAB
S1130B90550BBB27AA2762177307840738F09F5F9A
S1130BA05F4F220F331F441FAA1FA9F335D00E2E07
S1130BB03AF0E0E832D091505040E695001CCAF774
S1130BC02BD0FE2F29D0660F771F881FBB1F261737
S1130BD037074807AB07B0E809F0BB0B802DBF010E
S1130BE0FF2793585F4F3AF09E3F510578F00C94DD
S1130BF07F060C94CA065F3FE4F3983ED4F38695CF
S1130C0077956795B795F7959F5FC9F7880F911DFD
S1130C109695879597F90895E1E0660F771F881FE9
S1130C20BB1F621773078407BA0720F0621B730B9C
S1130C30840BBA0BEE1F88F7E0950895E89409C079
S1130C4097FB3EF490958095709561957F4F8F4FFB
S1130C509F4F9923A9F0F92F96E9BB279395F69511
S1130C60879577956795B795F111F8CFFAF4BB0F8F
S1130C7011F460FF1BC06F5F7F4F8F4F9F4F16C0F3
S1130C80882311F096E911C0772321F09EE8872F7D
S1130C90762F05C0662371F096E8862F70E060E039
S1130CA02AF09A95660F771F881FDAF7880F9695B2
S1130CB0879597F90895990F0008550FAA0BE0E856
S1130CC0FEEF16161706E807F907C0F0121613060A
S1130CD0E407F50798F0621B730B840B950B39F44A
S1130CE00A2661F0232B242B252B21F408950A26B0
S1130CF009F4A140A6958FEF811D811D089597F9F0
S1130D009F6780E870E060E008959FEF80EC0895AD
S1130D1000240A94161617061806090608950024D6
S1130D200A9412161306140605060895092E039450
S1130D30000C11F4882352F0BB0F40F4BF2B11F4C4
S1130D4060FF04C06F5F7F4F8F4F9F4F089557FD23
S1130D509058440F551F59F05F3F71F04795880F25
S1130D6097FB991F61F09F3F79F0879508951216BC
S1130D7013061406551FF2CF4695F1DF08C0161668
S1130D8017061806991FF1CF869571056105089419
S1130D900895E894BB2766277727CB0197F9089530
S1130DA00E945B0608F48FEF08950E94E8060C94F5
S1130DB096060E94880638F00E948F0620F095233C
S1130DC011F00C947F060C94850611240C94CA0629
S1130DD00E94A70670F3959FC1F3950F50E0551F2D
S1130DE0629FF001729FBB27F00DB11D639FAA277C
S1130DF0F00DB11DAA1F649F6627B00DA11D661FCB
S1130E00829F2227B00DA11D621F739FB00DA11DEB
S1130E10621F839FA00D611D221F749F3327A00DA5
S1130E20611D231F849F600D211D822F762F6A2F41
S1130E3011249F5750409AF0F1F088234AF0EE0FA6
S1130E40FF1FBB1F661F771F881F91505040A9F7D3
S1130E509E3F510580F00C947F060C94CA065F3FB8
S1130E60E4F3983ED4F3869577956795B795F7950F
S1130E70E7959F5FC1F7FE2B880F911D9695879587
S1130E8097F90895A0E1B0E0E8E4F7E00C94770B5B
S1130E907C011B016A01FC0117821682838181FF98
S1130EA044C39E012F5F3F4F3901F7019381F10144
S1130EB093FD859193FF81911F01882309F431C328
S1130EC0853239F493FD859193FF81911F01853219
S1130ED039F4B70190E00E94AB0C56016501E5CFEF
S1130EE010E0512C912CFFE1F915D8F08B3279F0F8
S1130EF038F4803279F08332A1F4F92DF0612EC0F8
S1130F008D3261F0803369F4292D21602DC0392D93
S1130F103260932E892D8460982E2AC0E92DE860D2
S1130F2015C097FC2DC020ED280F2A3088F496FEBA
S1130F3006C03AE0139F200D1124122F19C08AE035
S1130F40589E200D1124522EE92DE0629E2E10C0D1
S1130F508E3231F496FCE5C2F92DF0649F2E08C060
S1130F608C3621F4292D2068922E02C0883641F453
S1130F70F10193FD859193FF81911F018111B3CFFD
S1130F809BEB980F933020F4992D9061805E07C0FD
S1130F909BE9980F933008F066C1992D9F7E96FFC8
S1130FA016E09F73992E853619F49064992E08C023
S1130FB0863621F4392F3068932E02C01111115056
S1130FC097FE07C01C3350F444244394410E27E099
S1130FD00BC0183038F027E017E005C027E09CE389
S1130FE0492E02C0212F412C560184E0A80EB11CC9
S1130FF0F6016081718182819381042DA3010E9495
S1131000BD0B6C01F981FC87F0FF02C0F3FF06C041
S113101091FC06C092FE06C000E205C00DE203C0CA
S11310200BE201C000E08C858C7019F001115AC2EA
S11310309BC297FE10C04C0CFC85F4FF04C08A814F
S1131040813309F44A94141474F528E0241578F5CE
S113105088E0482E2CC096FC2AC0812F90E08C1585
S11310609D059CF03CEFC3163FEFD30674F0892D29
S11310708068982E0AC0E2E0F0E0EC0FFD1FE10F5B
S1131080F11D8081803319F411501111F4CF97FEB2
S11310900EC044244394410E812F90E0C816D90613
S11310A02CF41C1904C04424439401C010E097FE9E
S11310B006C01C141D0434F4C601019605C085E065
S11310C090E002C081E090E001110196112331F01B
S11310D0212F30E02F5F3F4F820F931F252D30E0EB
S11310E08217930714F4581A01C0512C892D897062
S11310F049F4552039F0B70180E290E00E94AB0C2E
S11311005A94F7CF002329F0B701802F90E00E9472
S1131110AB0C93FC09C0552039F0B70180E390E093
S11311200E94AB0C5A94F7CF97FE4CC04601D7FEF1
S113113002C0812C912CC60188199909F301E80F8A
S1131140F91FFE87ED87960124193109388B2F8703
S1131150012F10E01195019511093FEF83169306B5
S113116029F4B7018EE290E00E94AB0CC814D904B4
S11311704CF08F8598898815990524F4ED85FE85B2
S1131180818101C080E3F1E08F1A91082D853E85AD
S11311902F5F3F4F3E872D87801691062CF0B701B5
S11311A090E00E94AB0CD9CFC814D90441F49A81C1
S11311B0963320F4953319F43C8534FF81E3B70169
S11311C090E04EC08A81813319F09C859F7E9C8774
S11311D0B70190E00E94AB0C111105C094FC18C03B
S11311E085E690E017C0B7018EE290E00E94AB0C58
S11311F01E5F82E001E0080FF301E80FF11D80811A
S1131200B70190E00E94AB0C802F0113F3CFE6CF1F
S113121085E490E0B7010E94AB0CD7FC06C0C11472
S1131220D10441F4EC85E4FF05C0D194C194D10804
S11312308DE201C08BE2B70190E00E94AB0C80E329
S11312402AE0C216D1042CF08F5FFAE0CF1AD1083D
S1131250F7CFB70190E00E94AB0CB701C601C0966E
S11312600E94AB0C54C1833631F0833779F0833557
S113127009F056C020C0560132E0A30EB11CF6019D
S11312808081898301E010E0630112C05601F2E01D
S1131290AF0EB11CF601C080D18096FE03C0612F51
S11312A070E002C06FEF7FEFC6010E94A00C8C01BA
S11312B0F92DFF7714C0560122E0A20EB11CF601ED
S11312C0C080D18096FE03C0612F70E002C06FEF32
S11312D07FEFC6010E94950C8C01F92DF0689F2EBA
S11312E0F3FD1AC0852D90E008171907A8F4B7017B
S11312F080E290E00E94AB0C5A94F4CFF60197FC84
S1131300859197FE81916F01B70190E00E94AB0C2B
S113131051105A94015011090115110579F7F7C0BC
S1131320843611F0893661F5560197FE09C024E030
S1131330A20EB11CF60160817181828193810AC081
S1131340F2E0AF0EB11CF60160817181072E000C32
S1131350880B990BF92DFF769F2E97FF09C0909566
S11313608095709561957F4F8F4F9F4FF0689F2EAA
S11313702AE030E0A3010E94170DC82EC6183FC012
S1131380092D853721F40F7E2AE030E01DC0097F46
S11313908F3691F018F4883559F0C3C0803719F0AE
S11313A0883711F0BEC0006104FF09C0046007C0A3
S11313B094FE08C0066006C028E030E005C020E1C5
S11313C030E002C020E132E0560107FF09C084E0AA
S11313D0A80EB11CF601608171818281938108C0DD
S11313E0F2E0AF0EB11CF6016081718180E090E003
S11313F0A3010E94170DC82EC6180F77902E96FED3
S11314000BC0092D0E7FC11650F494FE0AC092FC45
S113141008C0092D0E7E05C0DC2C092D03C0DC2C70
S113142001C0D12E04FF0DC0FE01EC0DF11D808121
S1131430803311F4097E09C002FF06C0D394D3940B
S113144004C0802F867809F0D39403FD11C000FFF7
S113145006C01C2DD51480F4150D1D190DC0D5140E
S113146058F4B70180E290E00E94AB0CD394F7CF1C
S1131470D51410F45D1801C0512C04FF10C0B7013D
S113148080E390E00E94AB0C02FF17C001FD03C093
S113149088E790E002C088E590E0B7010CC0802F97
S11314A0867859F001FF02C08BE201C080E207FD9B
S11314B08DE2B70190E00E94AB0CC11638F4B7017D
S11314C080E390E00E94AB0C1150F7CFCA94F30173
S11314D0EC0DF11D8081B70190E00E94AB0CC110AE
S11314E0F5CF15C0F4E0F51560F584E0581A93FEC5
S11314F01FC0011127C02C8523FF2AC008E610E075
S1131500392D3071932EF8018491811124C0552016
S113151009F4E4CCB70180E290E00E94AB0C5A9449
S1131520F6CFF7018681978126C08FEF9FEF23C006
S1131530B70180E290E00E94AB0C5A945110F8CFAE
S1131540D8CF512CB701802F90E00E94AB0CD3CFA1
S11315500CE610E0D5CF91108052B70190E00E94C4
S1131560AB0C0F5F1F4FCFCF23E0251510F483E0A2
S1131570BDCF512CC0CF6096E2E10C94930BDF9366
S1131580CF931F930F939A9DF02D219FF00D8B9D68
S1131590F00D8A9DE02DF10D039FF00D029FE00DEB
S11315A0F11D4E9DE00DF11D5E9DF00D4F9DF00D62
S11315B07F936F93BF92AF925F934F93D5010E9435
S11315C0AE0B8B01AC01D7010E94AE0BEB01E80F0F
S11315D0F91FD6010E940F0B2F913F91D6010E9453
S11315E0AE0BC60FD71FE81FF91FAF91BF910E9422
S11315F00F0B2F913F910E94AE0BC60FD71FE81F10
S1131600F91FD6010E94AE0BE60FF71F9801BE0129
S1131610CF0111240F911F91CF91DF9108950E9462
S1131620AE0B460F571FC81FD91F08F431960895F3
S1131630689401C0E8948F929F92CF93DF930E94A5
S1131640260BDF91CF919F908F9008958824992441
S1131650F401E401B0E49F93AA279A158B049C0437
S1131660ED05FE05CF05D007A10798F4AD2FDC2FBB
S1131670CF2FFE2FE92D982C892E982F872F762F88
S1131680652F542F432F322F2227B85031F7BF91A3
S113169027C01B2EBF91BB27220F331F441F551F8A
S11316A0661F771F881F991F881C991CEE1FFF1F38
S11316B0CC1FDD1FAA1FBB1F8A149B04EC05FD056C
S11316C0CE05DF05A007B10748F08A189B08EC098E
S11316D0FD09CE09DF09A00BB10B21601A94E1F6D4
S11316E02EF49401AF01BE01CD01000C08952F9298
S11316F03F924F925F926F927F928F929F92AF929E
S1131700BF92CF92DF92EF92FF920F931F93CF93EA
S1131710DF93CDB7DEB7CA1BDB0B0FB6F894DEBF81
S11317200FBECDBF09942A88398848885F846E84A7
S11317307D848C849B84AA84B984C884DF80EE80F1
S1131740FD800C811B81AA81B981CE0FD11D0FB6FA
S1131750F894DEBF0FBECDBFED010895A29FB00186
S1131760B39FC001A39F700D811D1124911DB29FD1
S1131770700D811D1124911D0895283008F027E073
S11317803327DA01990F311D87FD916000966105B9
S1131790710539F432602E5F3D9330E32A95E1F709
S11317A008959F3F30F080387105610509F03C5F72
S11317B03C5F3D93913008F08068911DDF93CF9397
S11317C01F930F93FF92EF92192F987F9695E92F0D
S11317D096959695E90FFF27E653FF4F99273327F0
S11317E0EE24FF24A701E70105900894079428F448
S11317F0360FE71EF81E491F511D660F771F881FFD
S1131800991F0694A1F70590079428F4E70EF81E93
S1131810491F561FC11D770F881F991F661F069405
S1131820A1F70590079428F4F80E491F561FC71F07
S1131830D11D880F991F661F771F0694A1F7059085
S1131840079420F4490F561FC71FD81F990F661F0E
S1131850771F881F0694A9F784911095177041F09B
S1131860D695C79557954795F794E7941A95C1F778
S1131870E0E7F0E0689415901591359165919591A4
S113188005907FE27395E118F10A430B560BC90BDF
S1131890D009C0F7E10CF11E431F561FC91FD01D0C
S11318A07EF4703311F48A95E6CFE894015030F059
S11318B0080F0AF40027021708F4202F2395022F9B
S11318C07A3328F079E37D932A95E9F710C07D9364
S11318D02A9589F6069497956795379517951794E1
S11318E0E118F10A430B560BC90BD00998F0239564
S11318F07E9173957A3308F070E37C932013B8F7E4
S11319007E9170617D9330F0839571E37D9370E3F4
S11319102A95E1F71124EF90FF900F911F91CF9139
S1131920DF91992787FD90950895FC0105906150FA
S113193070400110D8F7809590958E0F9F1F0895E1
S1131940FC016150704001900110D8F7809590958A
S11319508E0F9F1F08950F931F93CF93DF93FB0167
S1131960238121FD03C08FEF9FEF2CC022FF16C0FF
S113197046815781248135814217530744F4A0815D
S1131980B1819D012F5F3F4F318320838C9326814A
S113199037812F5F3F4F3783268314C08B01EC01BF
S11319A0FB010084F185E02D0995892BE1F6D8012E
S11319B016968D919C911797019617969C938E93EA
S11319C01697CE01DF91CF911F910F910895AEE04C
S11319D0B0E0EDEEFCE00C94850B0D891E898F8937
S11319E0988D26E02C831A83098397FF02C080E038
S11319F090E801979E838D83AE01455E5F4F698DAC
S1131A007A8DCE0101960E9442074D815E8157FD79
S1131A100AC02F813885421753070CF49A01F80144
S1131A20E20FF31F10822E96E4E00C94A10BFA014E
S1131A30AA27283051F1203181F1E8946F936E7F09
S1131A406E5F7F4F8F4F9F4FAF4FB1E03ED0B4E0FA
S1131A503CD0670F781F891F9A1FA11D680F791F3B
S1131A608A1F911DA11D6A0F711D811D911DA11D4C
S1131A7020D009F468943F912AE0269F112430195C
S1131A80305D3193DEF6CF010895462F4770405DF7
S1131A904193B3E00FD0C9F7F6CF462F4F70405DA6
S1131AA04A3318F0495D31FD4052419302D0A9F701
S1131AB0EACFB4E0A6959795879577956795BA95FB
S1131AC0C9F700976105710508959B01AC010A2EC1
S1131AD006945795479537952795BA95C9F7620F98
S1111AE0731F841F951FA01D0895F894FFCF57
S1131AEE0E111010150E10416C747572613A20258A
S1131AFE2E326620636D2000563A20252E32662043
S1131B0E4C002D434845494F002020202020200022
S9030000FC
